:100000000C9434000C943E000C943E000C943E0082
:100010000C943E000C943E000C943E000C943E0068
:100020000C943E000C943E000C943E000C943E0058
:100030000C943E000C943E000C943E000C943E0048
:100040000C943E000C943E000C943E000C943E0038
:100050000C943E000C943E000C943E000C943E0028
:100060000C943E000C943E0011241FBECFEFD8E04C
:10007000DEBFCDBF0E9413040C9457040C94000003
:1000800081E090E00E9441010E94F70281E090E04F
:100090000E9453012FEF89E698E121508040904063
:1000A000E1F700C0000081E090E00E9441010E9461
:1000B000300381E090E00E9453012FEF89E698E140
:1000C000215080409040E1F700C0000082E090E0C5
:1000D0000E9441010E94450382E090E00E9453018A
:1000E0002FEF89E698E1215080409040E1F700C071
:1000F000000080E090E00E9441010E94080380E03F
:1001000090E00E9453012FEF89E698E12150804052
:100110009040E1F700C0000080E090E00E944101C3
:100120000E94410380E090E00E9453012FEF89E696
:1001300098E1215080409040E1F700C00000089510
:10014000CF93C3E080E090E00E9441010E94D8027A
:100150002FEF82E597E0215080409040E1F700C00A
:10016000000080E090E00E9453010E94DA022FEF2D
:1001700082E597E0215080409040E1F700C0000008
:10018000C15001F72FEF89E698E12150804090405F
:10019000E1F700C000000E941F020E9430032FEF11
:1001A00083ED90E3215080409040E1F700C00000D3
:1001B000CF910895CF9381E090E00E9441010E9489
:1001C000F7022FEF87EA91E6215080409040E1F757
:1001D00000C000000E94A90182E090E00E9441015D
:1001E00084E690E00E94DF022FEF8BE792E9215036
:1001F00080409040E1F700C0000082E090E00E9463
:100200005301C5E080E090E00E9441010E94D802C5
:100210002FEF83EC99E0215080409040E1F700C03F
:10022000000080E090E00E9453010E94DA022FEF6C
:1002300083EC99E0215080409040E1F700C000003D
:10024000C15001F72FEF83ED90E3215080409040A3
:10025000E1F700C0000081E090E00E9441010E94AF
:1002600030032FEF87EA91E6215080409040E1F77C
:1002700000C00000CF910C94A9015A9A08955A9891
:1002800008958130910549F030F08230910539F0C0
:10029000039739F008950C943D015B9A08955C9A98
:1002A00008952D9A08958130910549F030F08230FB
:1002B000910539F0039739F008950C943F015B984C
:1002C00008955C9808952D9808958130910551F016
:1002D00030F08230910549F0039761F008959BB1A9
:1002E00084E005C09BB188E002C09BB180E1892712
:1002F0008BB9089595B180E2892785B908950F9348
:100300001F93CF93DF93EC018B010E94410180E0AA
:1003100090E08017910741F0EFE9FFE03197F1F7A6
:1003200000C000000196F5CFCE01DF91CF911F9163
:100330000F910C9453010E943D0181E090E00E94D6
:10034000410182E090E00E94410183E090E00C9442
:1003500041010E943F0181E090E00E94530182E050
:1003600090E00E94530183E090E00C9453018AB125
:100370008C618AB9259A0C94A9010E94A90168ECA4
:1003800070E080E090E00E947F012FEF80E792E034
:10039000215080409040E1F700C0000068EC70E020
:1003A00081E090E00E947F012FEF80E792E02150F2
:1003B00080409040E1F700C0000068EC70E082E00F
:1003C00090E00E947F012FEF80E792E02150804073
:1003D0009040E1F700C000000E949B012FEF85EAEA
:1003E0009EE0215080409040E1F700C000000C9456
:1003F000A901CF930E94A901C3E00E943D0183E0BF
:1004000090E00E9441012FEF82E597E0215080406B
:100410009040E1F700C000000E943F0183E090E0BF
:100420000E9453012FEF82E597E0215080409040D9
:10043000E1F700C00000C15001F7CF9108950E947C
:10044000A90181E090E00E9441012FEF87EE93E047
:10045000215080409040E1F700C0000081E090E032
:100460000E9453012FEF87EE93E02150804090408F
:10047000E1F700C0000081E090E00E9441012FEF11
:1004800087EE93E0215080409040E1F700C00000EB
:1004900081E090E00E9453012FEF87EE93E021501E
:1004A00080409040E1F700C000000895CF930E9483
:1004B000A9010E943D0183E090E00E9441012FEFDD
:1004C00089E698E1215080409040E1F700C00000AB
:1004D0000E94A90181E090E00E94410183E090E048
:1004E0000E9441012FEF89E698E121508040904021
:1004F000E1F700C000000E94A90182E090E00E94A4
:10050000410183E090E00E9441012FEF89E698E1EC
:10051000215080409040E1F700C000000E949B0104
:100520002FEF89E698E1215080409040E1F700C02C
:1005300000000E94A9012FEF89E698E12150804038
:100540009040E1F700C00000C5E00E943D012FEFA0
:1005500081EE94E0215080409040E1F700C000001F
:100560000E943F0181E090E00E9441012FEF81EE67
:1005700094E0215080409040E1F700C0000081E00D
:1005800090E00E94530182E090E00E9441012FEF31
:1005900081EE94E0215080409040E1F700C00000DF
:1005A00082E090E00E945301C15079F6CF91089506
:1005B0005E9A08955E980895569A0C94DA02CF9345
:1005C000DF93EC010E94D80280E090E08C179D0739
:1005D00041F0EFE9FFE03197F1F700C0000001962C
:1005E000F5CFDF91CF910C94DA020C94DF0284E610
:1005F00090E00E94DF022FEF81EE94E021508040D6
:100600009040E1F700C0000084E690E00C94DF0227
:1006100088EC90E00E94DF022FEF83EC99E02150FC
:1006200080409040E1F700C0000088EC90E00E941C
:10063000DF022FEF83EC99E0215080409040E1F7FA
:1006400000C0000088EC90E00E94DF022FEF83ECF6
:1006500099E0215080409040E1F700C000000895EB
:1006600082E390E00E94DF022FEF87EE93E02150BB
:1006700080409040E1F700C0000082E390E00C94DD
:10068000DF0284EF91E00C94DF02CF93C5E084E6B3
:1006900090E00E94DF022FEF81EE94E02150804035
:1006A0009040E1F700C00000C15089F7CF91089554
:1006B0001F93CF93DF93182FC0E0C11741F1DAE009
:1006C0000E94D8028FE19EE40197F1F700C000007C
:1006D0000E94DA028FE19EE40197F1F700C000006A
:1006E000D15071F7DAE00E94D8028FE39CE90197BC
:1006F000F1F700C000000E94DA028FE39CE9019745
:10070000F1F700C00000D15071F7CF5FD6CFDF9175
:10071000CF911F91089584E690E00E94DF022FEFB1
:1007200081EE94E0215080409040E1F700C000004D
:1007300084E690E00E94DF022FEF81EE94E02150EA
:1007400080409040E1F700C0000084E690E00E9405
:10075000DF022FEF81EE94E0215080409040E1F7DE
:1007600000C000002FEF83EC99E0215080409040C2
:10077000E1F700C000008CE291E00E94DF022FEF61
:1007800081EE94E0215080409040E1F700C00000ED
:100790008CE291E00E94DF022FEF81EE94E0215085
:1007A00080409040E1F700C000008CE291E00E94A0
:1007B000DF022FEF81EE94E0215080409040E1F77E
:1007C00000C000002FEF83EC99E021508040904062
:1007D000E1F700C0000084E690E00E94DF022FEF06
:1007E00081EE94E0215080409040E1F700C000008D
:1007F00084E690E00E94DF022FEF81EE94E021502A
:1008000080409040E1F700C0000084E690E00E9444
:10081000DF022FEF81EE94E0215080409040E1F71D
:1008200000C0000008950E94B7010E94DC020E94EF
:10083000BD010E94F7022FEF83ED90E3215080402D
:100840009040E1F700C000000E9440002FEF83EDD0
:1008500090E3215080409040E1F700C000000E94EA
:10086000A0002FEF83ED90E3215080409040E1F70E
:1008700000C000000E94DA002FEF87EA91E62150C5
:1008800080409040E1F700C0000080E090E00E94CE
:1008900041010E948B0380E090E00E9453012FEF02
:1008A0008BE792E9215080409040E1F7CBCFF8945C
:0208B000FFCF78
:00000001FF
