:100000000C9434000C9449000C9449000C94490061
:100010000C9449000C9449000C9449000C9449003C
:100020000C9449000C9449000C9449000C9449002C
:100030000C9449000C9449000C9449000C9449001C
:100040000C9449000C9449000C9449000C9449000C
:100050000C9449000C9449000C9449000C944900FC
:100060000C9449000C94490011241FBECFEFD8E036
:10007000DEBFCDBF11E0A0E0B1E0EEE3FAE002C0E8
:1000800005900D92A637B107D9F70E9426040C946B
:100090001D050C9400005A9A08955A9808958130CD
:1000A000910549F030F08230910539F0039739F02D
:1000B00008950C944B005B9A08955C9A08952D9ACC
:1000C00008958130910549F030F08230910539F082
:1000D000039739F008950C944D005B9808955C984F
:1000E00008952D9808958130910551F030F08230B7
:1000F000910549F0039761F008959BB184E005C034
:100100009BB188E002C09BB180E189278BB908953B
:1001100095B180E2892785B908950F931F93CF93F6
:10012000DF93EC018B010E944F0080E090E080178C
:10013000910741F0EFE9FFE03197F1F700C00000CF
:100140000196F5CFCE01DF91CF911F910F910C94C5
:1001500061000E944B0081E090E00E944F0082E02D
:1001600090E00E944F0083E090E00C944F000E94CA
:100170004D0081E090E00E94610082E090E00E94EA
:10018000610083E090E00C9461008AB18C618AB9CF
:10019000259A0C94B7000E94B70068EC70E080E0EC
:1001A00090E00E948D002FEF80E792E02150804088
:1001B0009040E1F700C0000068EC70E081E090E062
:1001C0000E948D002FEF80E792E021508040904008
:1001D000E1F700C0000068EC70E082E090E00E946F
:1001E0008D002FEF80E792E0215080409040E1F7B2
:1001F00000C000000E94A9002FEF85EA9EE0215078
:1002000080409040E1F700C000000C94B700CF930D
:100210000E94B700C3E00E944B0083E090E00E9480
:100220004F002FEF82E597E0215080409040E1F7AA
:1002300000C000000E944D0083E090E00E94610039
:100240002FEF82E597E0215080409040E1F700C019
:100250000000C15001F7CF9108950E94B70081E0DE
:1002600090E00E944F002FEF87EE93E021508040F6
:100270009040E1F700C0000081E090E00E94610042
:100280002FEF87EE93E0215080409040E1F700C0CF
:10029000000081E090E00E944F002FEF87EE93E096
:1002A000215080409040E1F700C0000081E090E0E4
:1002B0000E9461002FEF87EE93E021508040904034
:1002C000E1F700C000000895CF930E94B7000E949C
:1002D0004B0083E090E00E944F002FEF89E698E109
:1002E000215080409040E1F700C000000E94B7001C
:1002F00081E090E00E944F0083E090E00E944F0078
:100300002FEF89E698E1215080409040E1F700C04E
:1003100000000E94B70082E090E00E944F0083E05E
:1003200090E00E944F002FEF89E698E12150804035
:100330009040E1F700C000000E94A9002FEF89E67D
:1003400098E1215080409040E1F700C000000E94F9
:10035000B7002FEF89E698E1215080409040E1F707
:1003600000C00000C5E00E944B002FEF81EE94E03A
:10037000215080409040E1F700C000000E944D00F5
:1003800081E090E00E944F002FEF81EE94E0215039
:1003900080409040E1F700C0000081E090E00E94C2
:1003A000610082E090E00E944F002FEF81EE94E028
:1003B000215080409040E1F700C0000082E090E0D2
:1003C0000E946100C15079F6CF9108955E9A089518
:1003D0005E980895569A0C94E801CF93DF93EC0150
:1003E0000E94E60180E090E08C179D0741F0EFE964
:1003F000FFE03197F1F700C000000196F5CFDF91E3
:10040000CF910C94E8010C94ED0184E690E00E94F9
:10041000ED012FEF81EE94E0215080409040E1F714
:1004200000C0000084E690E00C94ED0188EC90E0C0
:100430000E94ED012FEF83EC99E021508040904025
:10044000E1F700C0000088EC90E00E94ED012FEF82
:1004500083EC99E0215080409040E1F700C000001B
:1004600088EC90E00E94ED012FEF83EC99E02150A1
:1004700080409040E1F700C00000089582E390E0E2
:100480000E94ED012FEF87EE93E0215080409040D5
:10049000E1F700C0000082E390E00C94ED0184EFEE
:1004A00091E00C94ED01CF93C5E084E690E00E94CA
:1004B000ED012FEF81EE94E0215080409040E1F774
:1004C00000C00000C15089F7CF9108951F93CF93CA
:1004D000DF93182FC0E0C11741F1DAE00E94E60176
:1004E0008FE19EE40197F1F700C000000E94E8014F
:1004F0008FE19EE40197F1F700C00000D15071F741
:10050000DAE00E94E6018FE39CE90197F1F700C071
:1005100000000E94E8018FE39CE90197F1F700C019
:100520000000D15071F7CF5FD6CFDF91CF911F91EF
:10053000089584E690E00E94ED012FEF81EE94E0B3
:10054000215080409040E1F700C0000084E690E038
:100550000E94ED012FEF81EE94E021508040904009
:10056000E1F700C0000084E690E00E94ED012FEF6B
:1005700081EE94E0215080409040E1F700C00000FF
:100580002FEF83EC99E0215080409040E1F700C0CC
:1005900000008CE291E00E94ED012FEF81EE94E0EB
:1005A000215080409040E1F700C000008CE291E0D3
:1005B0000E94ED012FEF81EE94E0215080409040A9
:1005C000E1F700C000008CE291E00E94ED012FEF06
:1005D00081EE94E0215080409040E1F700C000009F
:1005E0002FEF83EC99E0215080409040E1F700C06C
:1005F000000084E690E00E94ED012FEF81EE94E090
:10060000215080409040E1F700C0000084E690E077
:100610000E94ED012FEF81EE94E021508040904048
:10062000E1F700C0000084E690E00E94ED012FEFAA
:1006300081EE94E0215080409040E1F700C000003E
:10064000089588E48093B8001092B90084E0809304
:10065000BC00089584EA8093BC0080E197E2209179
:10066000BC0027FD03C00197D1F708C09091B900E5
:10067000987F81E0983021F0903111F080E008956A
:10068000089584E98093BC0085E38A95F1F7000022
:1006900008958093BB0084E88093BC0080E197E2DA
:1006A0002091BC0027FD03C00197D1F708C09091AD
:1006B000B900987F81E0983121F0983211F080E004
:1006C0000895089584EC8093BC008091BC0087FF5E
:1006D000FCCF8091BB00089584E88093BC0080919A
:1006E000BC0087FFFCCF8091BB0008958091B900CA
:1006F000887F0895CF93C82F0E942A038CE70E9419
:10070000490380E80E9449038C2F0E9449030E94FC
:100710004103C150C23028F48FE39FE10197F1F704
:1007200004C087EC90E00197F1F700C00000CF9182
:100730000895CF93C82F0E942A038CE70E94490393
:1007400080E40E9449038C2F0E9449030E944103C8
:1007500087EC90E00197F1F700C00000CF91089579
:1007600081E00E947A038FE39FE10197F1F700C0D7
:10077000000008952FEF80E792E0215080409040E4
:10078000E1F700C0000088E30E947A038FE19EE455
:100790000197F1F700C000008CE0809300010E94F7
:1007A0007A030E94B00384E00E947A038FE19EE402
:1007B0000197F1F700C0000081E0089582E00E94F7
:1007C0007A038FE39FE10197F1F700C000000895DD
:1007D000603108F06FE08111605C862F80680C94B6
:1007E0007A030C949903CF93DF93EC0189918823CA
:1007F00019F00E949903FACFDF91CF91089590915B
:100800000001882311F0946001C09B7F9093000148
:10081000809100010C947A0390910001882311F0DB
:10082000926001C09D7F90930001809100010C9423
:100830007A0390910001882311F0916001C09E7F9E
:1008400090930001809100010C947A030E94C500EE
:100850000E94EA0181E090E00E944F0084E690E06F
:100860000E94ED012FEF83EC99E0215080409040F1
:10087000E1F700C0000081E090E00E9461000E946A
:1008800021030E94BA030E94B00360E080E00E944E
:10089000E80381E091E00E94F30360E081E00E94C0
:1008A000E8038EE091E00E94F30381E090E00E9473
:1008B0004F000E943E0281E090E00E9461002FEF15
:1008C0008BE792E9215080409040E1F700C00000A2
:1008D0000E94B00360E080E00E94E8038DE191E0B7
:1008E0000E94F303C0E360E081E00E94E80387E236
:1008F00091E00E94F3038C2F0E94F10382E090E0CC
:100900000E944F0082E390E00E94ED0182E090E0BF
:100910000E9461002FEF83ED90E3215080409040D2
:10092000E1F700C00000CF5FCA33E9F62FEF83ED97
:1009300090E3215080409040E1F700C000000E9409
:10094000B00360E080E00E94E80380E391E00E9451
:10095000F30360E081E00E94E8038CE391E00E94F1
:10096000F30381E090E00E944F002FEF87EA91E6C9
:10097000215080409040E1F700C0000081E090E00D
:100980000E9461000E94B00360E080E00E94E803E2
:100990008AE491E00E94F30360E081E00E94E803B2
:1009A00084E591E00E94F30382E090E00E944F0012
:1009B0002FEF87EA91E6215080409040E1F700C098
:1009C000000082E090E00E9461000E94B00360E0BD
:1009D00080E00E94E80381E691E00E94F30360E07A
:1009E00081E00E94E80381E00E940C048EE691E021
:1009F0000E94F3032FEF87EA91E621508040904058
:100A0000E1F700C0000080E00E940C0481E00E9439
:100A100019042FEF87EA91E6215080409040E1F7DA
:100A200000C0000080E00E9419042FEF83ED90E3E6
:0E0A3000215080409040E1F749CFF894FFCF6D
:100A3E000C48656C6C6F20576F726C6421004C43D0
:100A4E00442047726F76652076322E3000436F6DEC
:100A5E0070746575723A0056616C6575723A200055
:100A6E004C61622D4F2D547261636B005379737418
:100A7E00656D6520616374696600507265742070DF
:100A8E006F757200747261636162696C697465215D
:100A9E0000546573742063757273657572005669C0
:060AAE007369626C650033
:00000001FF
