:100000000C9434000C943E000C943E000C943E0082
:100010000C943E000C943E000C943E000C943E0068
:100020000C943E000C943E000C943E000C943E0058
:100030000C943E000C943E000C943E000C943E0048
:100040000C943E000C943E000C943E000C943E0038
:100050000C943E000C943E000C943E000C943E0028
:100060000C943E000C943E0011241FBECFEFD8E04C
:10007000DEBFCDBF0E94DB010C944D020C9400004A
:100080005A9A08955A9808958130910549F030F0B0
:100090008230910539F0039739F008950C944000AF
:1000A0005B9A08955C9A08952D9A08958130910580
:1000B00049F030F08230910539F0039739F0089516
:1000C0000C9442005B9808955C9808952D980895CB
:1000D0008130910551F030F08230910549F003975D
:1000E00061F008959BB184E005C09BB188E002C037
:1000F0009BB180E189278BB9089595B180E289276A
:1001000085B908950F931F93CF93DF93EC018B0173
:100110000E94440080E090E08017910741F0EFE9F1
:10012000FFE03197F1F700C000000196F5CFCE0156
:10013000DF91CF911F910F910C9456000E944000C7
:1001400081E090E00E94440082E090E00E94440040
:1001500083E090E00C9444000E94420081E090E033
:100160000E94560082E090E00E94560083E090E0FA
:100170000C9456008AB18C618AB9259A0C94AC0013
:100180000E94AC0068EC70E080E090E00E94820089
:100190002FEF80E792E0215080409040E1F700C0CF
:1001A000000068EC70E081E090E00E9482002FEF98
:1001B00080E792E0215080409040E1F700C00000CD
:1001C00068EC70E082E090E00E9482002FEF80E710
:1001D00092E0215080409040E1F700C000000E9472
:1001E0009E002FEF85EA9EE0215080409040E1F78D
:1001F00000C000000C94AC00CF930E94AC00C3E0A0
:100200000E94400083E090E00E9444002FEF82E5CE
:1002100097E0215080409040E1F700C000000E942C
:10022000420083E090E00E9456002FEF82E597E0C5
:10023000215080409040E1F700C00000C15001F71C
:10024000CF9108950E94AC0081E090E00E944400AC
:100250002FEF87EE93E0215080409040E1F700C0FF
:10026000000081E090E00E9456002FEF87EE93E0BF
:10027000215080409040E1F700C0000081E090E014
:100280000E9444002FEF87EE93E021508040904081
:10029000E1F700C0000081E090E00E9456002FEFDF
:1002A00087EE93E0215080409040E1F700C00000CD
:1002B0000895CF930E94AC000E94400083E090E03C
:1002C0000E9444002FEF89E698E121508040904041
:1002D000E1F700C000000E94AC0081E090E00E94C5
:1002E000440083E090E00E9444002FEF89E698E10B
:1002F000215080409040E1F700C000000E94AC0017
:1003000082E090E00E94440083E090E00E9444007C
:100310002FEF89E698E1215080409040E1F700C03E
:1003200000000E949E002FEF89E698E12150804056
:100330009040E1F700C000000E94AC002FEF89E67A
:1003400098E1215080409040E1F700C00000C5E0F6
:100350000E9440002FEF81EE94E0215080409040B9
:10036000E1F700C000000E94420081E090E00E949E
:1003700044002FEF81EE94E0215080409040E1F75F
:1003800000C0000081E090E00E94560082E090E012
:100390000E9444002FEF81EE94E021508040904075
:1003A000E1F700C0000082E090E00E945600C150DA
:1003B00079F6CF9108950E94BA000E94C0002FEFF5
:1003C00083ED90E3215080409040E1F700C00000B1
:1003D0000E9459012FEF87EA91E62150804090401A
:1003E000E1F700C000000E94FC002FEF89E698E1D1
:1003F000215080409040E1F700C000000E9422019F
:100400002FEF89E698E1215080409040E1F700C04D
:10041000000080E090E00E9444002FEF85EA9EE01B
:10042000215080409040E1F700C0000080E090E063
:100430000E94560081E090E00E9444002FEF85EA80
:100440009EE0215080409040E1F700C0000081E034
:1004500090E00E94560082E090E00E9444002FEF5E
:1004600085EA9EE0215080409040E1F700C0000006
:1004700082E090E00E945600CAE083E090E00E9493
:1004800068002FEF81EE94E0215080409040E1F72A
:0E04900000C00000C15089F792CFF894FFCF52
:00000001FF
